:060000000A128A11E92F2B
:100D82000C30831603139900181283120313981759
:100D9200831603139816831203130C1218168C125F
:100DA200080083160317890183160313860188013D
:100DB20083120313860188017030831603138F0494
:100DC2000F148B178C1608007E088A007F08820099
:100DD2000A128A11E5260A128A118000840A04087E
:100DE2007D0603190034FF0A0319FE0AE92E831651
:100DF20003130514831603170814831203131F1712
:100E02009F13831603131F129F12831203131F11C2
:100E12009F111F129F12831603139F138312031332
:100E22001F144230F500F50B142F00000800453462
:100E32006C34693467346534203475346E3461340B
:100E420020346F347034633469346F346E340A344E
:100E52000D34313420342D3420344C34653465342F
:100E62007234203450346F34743465346E346334E5
:100E720069346F346D346534743472346F340A34C7
:100E82000D34323420342D34203445346E347634EB
:100E92006934613472342034413453344334493434
:100EA20049340A3420340A340D340A128A11D22603
:100EB2000A128A110A128A11C1260A128A110A1208
:100EC2008A11F8260A128A11832F83160313981C9B
:100ED2006B2F6C2F832F7008203E84008313000831
:100EE2008312031399000130F0070318F10A00304E
:100EF200F1071A30F700F830F600F60B7E2FF70BE9
:100F02007E2F00007108803AFF0080307F02031DAF
:100F12008C2F3E307002031C8F2F902F662FDB2FF9
:100F2200831203139F149F18972F982F942F0C133B
:100F32001E08F4004230F600F60B9D2F00008312CB
:100F420003138C1EA52FA62FDB2F31301A06031D8B
:100F5200AB2FAC2FC62F7408303E99000230F80038
:100F62000430F700BA30F600F60BB52FF70BB52FA9
:100F7200F80BB52F00000A308312031399000D30CD
:100F820099000130F2000030F30032301A06031DDE
:100F9200CB2FCC2FDB2F8C1ECF2FD02FCC2F8C1E04
:100FA200D32FD42FD72F1A0888008C120130F200C9
:100FB2000030F300720873040319E02FE12F912F20
:100FC200F201F301F001F101832F0A128A110028C4
:100FD20083135E30FD000730FE001830FF00203022
:100FE20084000A128A11E9260A128A11F001F1011B
:0E0FF200F201F301F40183010A128A11562F55
:08400000FF3FFF3FFF3FFF3FC0
:04400E00D420FF3F7C
:00000001FF
