:060000000A128A110C280F
:10000800FE00030EF0000A08F1000A128A113528D2
:100018000A128A110F2883010A128A112C288316C2
:100028000317890183160313850186018701880157
:1000380089018312031385018601870188018901DB
:10004800831603130F088F3930388F000F140800F8
:100058000A128A1113200A128A1131280A128A11E7
:100068000C2871088A00700E8300FE0E7E0E0900AF
:08400000FF3FFF3FFF3FFF3FC0
:04400E00D420FF3F7C
:00000001FF
