:060000000A128A11E92F2B
:100D86000C30831603139900181283120313981755
:100D9600831603139816831203130C1218168C125B
:100DA6000800831603178901831603138601880139
:100DB60083120313860188017030831603138F0490
:100DC6000F148B178C1608007E088A007F08820095
:100DD6000A128A11E7260A128A118000840A040878
:100DE6007D0603190034FF0A0319FE0AEB2E83164B
:100DF60003130514831603170814831203131F170E
:100E06009F13831603131F129F12831203131F11BE
:100E16009F111F129F12831603139F13831203132E
:100E26001F144230F500F50B162F0000080045345C
:100E36006C34693467346534203475346E34613407
:100E460020346F347034633469346F346E340A344A
:100E56000D34313420342D3420344C34653465342B
:100E66007234203450346F34743465346E346334E1
:100E760069346F346D346534743472346F340A34C3
:100E86000D34323420342D34203445346E347634E7
:100E96006934613472342034413453344334493430
:100EA60049340A340A340D340A128A11D4260A1235
:100EB6008A110A128A11C3260A128A110A128A1183
:100EC600FA260A128A11842F83160313981C6C2F94
:100ED6006D2F842F7008203E840083130008831230
:100EE600031399000130F0070318F10A0030F107E7
:100EF6001A30F700F830F600F60B7F2FF70B7F2F2E
:100F060000007108803AFF0080307F02031D8D2F9C
:100F16003E307002031C902F912F672FDB2F831218
:100F260003139F149F18982F992F952F0C131E08A3
:100F3600F4004230F600F60B9E2F000083120313D6
:100F46008C1EA62FA72FDB2F31301A06031DAC2FC0
:100F5600AD2FC62F740899000230F8000430F70050
:100F6600BA30F600F60BB52FF70BB52FF80BB52FE9
:100F760000000A308312031399000D3099000130E6
:100F8600F2000030F30032301A06031DCB2FCC2FAF
:100F9600DB2F8C1ECF2FD02FCC2F8C1ED32FD42FF0
:100FA600D72F1A0888008C120130F2000030F300A7
:100FB600720873040319E02FE12F922FF201F30157
:100FC600F001F101842F0A128A11002883135D3083
:100FD600FD000730FE001A30FF00203084000A12A0
:100FE6008A11EB260A128A11F001F101F201F301CE
:0A0FF600F40183010A128A11572F3B
:08400000FF3FFF3FFF3FFF3FC0
:04400E00D420FF3F7C
:00000001FF
