:060000000A128A11DF2F35
:100E32000C34003448346F346C34613420344D3413
:100E420075346E3464346F340C3083160313990096
:100E5200181283120313981783160313981683121A
:100E620003130C1218168C1208008316031789013B
:100E720083160313860188018312031386018801F6
:100E82007030831603138F040F148B178C1608000F
:100E92007E088A007F0882000A128A1149270A12F4
:100EA2008A118000840A04087D0603190034FF0AAF
:100EB2000319FE0A4D2F0A128A1136270A128A11C5
:100EC2000A128A1125270A128A110A128A118E27FA
:100ED2000A128A1183160313981C702F712F752F13
:100EE200831203130608990083128C1E792F7A2F1E
:100EF2007D2F1A0888008C120230F4000430F300AF
:100F0200BA30F200F20B832FF30B832FF40B832FF3
:100F12000000662F0A128A1100280C307806790424
:100F2200031D942F952F982FF801F9019E2F013060
:100F3200F8070318F90A0030F907F001F1017908FE
:100F4200803AFF0080307F02031DA92F0B30780208
:100F52000318AC2FAD2FB52F7808203E84008313E1
:100F620000088312031386000B3078067904031DF0
:100F7200BB2FBC2FC02F0A308312031386000C3004
:100F820078067904031DC62FC72FCB2F0D3083128D
:100F9200031386000130F0070318F10A0030F1074D
:100FA2007108803AFF0080307F02031DDA2F0A3079
:100FB2007002031CDD2FDE2FA02F080083132A30BE
:100FC200FD000730FE001B30FF00203084000A12B3
:100FD2008A114D270A128A110A128A1119270A1236
:100FE2008A11F8000A128A111A270A128A11F900C4
:0E0FF200F501F601F70183010A128A115C2F46
:08400000FF3FFF3FFF3FFF3FC0
:04400E00D420FF3F7C
:00000001FF
